{
  "_format": "hh-sol-artifact-1",
  "contractName": "HlOracle",
  "sourceName": "contracts/oracles/HlOracle.sol",
  "abi": [
    {
      "inputs": [
        {
          "internalType": "contract IAutomatedFunctionsConsumer",
          "name": "automatedFunctionsConsumer_",
          "type": "address"
        }
      ],
      "stateMutability": "nonpayable",
      "type": "constructor"
    },
    {
      "anonymous": false,
      "inputs": [
        {
          "indexed": false,
          "internalType": "uint256",
          "name": "expiry",
          "type": "uint256"
        },
        {
          "indexed": false,
          "internalType": "uint256[2]",
          "name": "settlePrices",
          "type": "uint256[2]"
        }
      ],
      "name": "Settled",
      "type": "event"
    },
    {
      "inputs": [
        {
          "internalType": "bytes",
          "name": "",
          "type": "bytes"
        }
      ],
      "name": "checkUpkeep",
      "outputs": [
        {
          "internalType": "bool",
          "name": "upkeepNeeded",
          "type": "bool"
        },
        {
          "internalType": "bytes",
          "name": "",
          "type": "bytes"
        }
      ],
      "stateMutability": "view",
      "type": "function"
    },
    {
      "inputs": [
        {
          "internalType": "uint256",
          "name": "term",
          "type": "uint256"
        },
        {
          "internalType": "uint256",
          "name": "expiry",
          "type": "uint256"
        }
      ],
      "name": "getHlPrices",
      "outputs": [
        {
          "internalType": "uint256[2]",
          "name": "hlPrices",
          "type": "uint256[2]"
        }
      ],
      "stateMutability": "view",
      "type": "function"
    },
    {
      "inputs": [],
      "name": "latestExpiryUpdated",
      "outputs": [
        {
          "internalType": "uint256",
          "name": "",
          "type": "uint256"
        }
      ],
      "stateMutability": "view",
      "type": "function"
    },
    {
      "inputs": [
        {
          "internalType": "bytes",
          "name": "",
          "type": "bytes"
        }
      ],
      "name": "performUpkeep",
      "outputs": [],
      "stateMutability": "nonpayable",
      "type": "function"
    },
    {
      "inputs": [],
      "name": "settle",
      "outputs": [],
      "stateMutability": "nonpayable",
      "type": "function"
    },
    {
      "inputs": [
        {
          "internalType": "uint256",
          "name": "",
          "type": "uint256"
        },
        {
          "internalType": "uint256",
          "name": "",
          "type": "uint256"
        }
      ],
      "name": "settlePrices",
      "outputs": [
        {
          "internalType": "uint256",
          "name": "",
          "type": "uint256"
        }
      ],
      "stateMutability": "view",
      "type": "function"
    }
  ],
  "bytecode": "0x60a0604052600060015534801561001557600080fd5b50604051610cff380380610cff83398101604081905261003491610045565b6001600160a01b0316608052610075565b60006020828403121561005757600080fd5b81516001600160a01b038116811461006e57600080fd5b9392505050565b608051610c6161009e600039600081816101e80152818161063f015261079c0152610c616000f3fe608060405234801561001057600080fd5b50600436106100625760003560e01c80630b02b7421461006757806311da60b4146100905780634585e33b1461009a5780636e04ff0d146100ad5780636f313223146100ce5780637dece17f146100e5575b600080fd5b61007a6100753660046108a9565b6100f8565b60405161008791906108cb565b60405180910390f35b6100986101e4565b005b6100986100a83660046108fc565b61062b565b6100c06100bb3660046108fc565b610637565b60405161008792919061099e565b6100d760015481565b604051908152602001610087565b6100d76100f33660046108a9565b61076d565b610100610838565b506040805180820190915260001981526000602082015282156101de5760005b838110156101dc576000838152602081905260409020541580159061015357508151600084815260208190526040902054105b1561016a5760008381526020819052604090205482525b60008381526020819052604081206001015411801561019e5750602080830151600085815291829052604090912060010154115b156101bb5760008381526020818152604090912060010154908301525b6101c862015180846109f0565b9250806101d481610a07565b915050610120565b505b92915050565b60007f00000000000000000000000000000000000000000000000000000000000000006001600160a01b031663089ea02e6040518163ffffffff1660e01b8152600401602060405180830381865afa158015610244573d6000803e3d6000fd5b505050506040513d601f19601f820116820180604052508101906102689190610a22565b90506102776201518042610a51565b61028190426109f0565b61028d90617080610a65565b8110156102d75760405162461bcd60e51b815260206004820152601360248201527213dc9858db194e881b9bdd081d5c19185d1959606a1b60448201526064015b60405180910390fd5b60006102e66201518042610a51565b6102f090426109f0565b6102fc90617080610a65565b6000818152602081905260409020909150600101541561035e5760405162461bcd60e51b815260206004820152601760248201527f4f7261636c653a20616c726561647920736574746c656400000000000000000060448201526064016102ce565b6000610368610792565b905060015460001415801561038a57506103856202a300836109f0565b600154105b156105be57600062015180600154846103a391906109f0565b6103ad9190610a7d565b6001546000908152602081905260408082208151808301928390529394509192919060029082845b8154815260200190600101908083116103d55750939450600193505050505b828110156105ba57600061040b8262015180610a91565b6001546104189190610a65565b85518451919250101561046b57845183518591849161043791906109f0565b6104419190610a91565b61044b9190610a7d565b835161045791906109f0565b6000828152602081905260409020556104ad565b825185518591849161047d91906109f0565b6104879190610a91565b6104919190610a7d565b835161049d9190610a65565b6000828152602081905260409020555b60208086015190840151111561050f5760208086015190840151859184916104d591906109f0565b6104df9190610a91565b6104e99190610a7d565b60208401516104f891906109f0565b60008281526020819052604090206001015561055d565b602080840151908601518591849161052791906109f0565b6105319190610a91565b61053b9190610a7d565b602084015161054a9190610a65565b6000828152602081905260409020600101555b7f129963e6e43a03e48c7359ff751d2dce973b2e7719f9bc9e0bea219d39c4d05b8160008084815260200190815260200160002060405161059f929190610ab0565b60405180910390a150806105b281610a07565b9150506103f4565b5050505b60008281526020819052604090206105d890826002610856565b5060018290556000828152602081905260409081902090517f129963e6e43a03e48c7359ff751d2dce973b2e7719f9bc9e0bea219d39c4d05b9161061e91859190610ab0565b60405180910390a1505050565b6106336101e4565b5050565b6000606060007f00000000000000000000000000000000000000000000000000000000000000006001600160a01b031663089ea02e6040518163ffffffff1660e01b8152600401602060405180830381865afa15801561069b573d6000803e3d6000fd5b505050506040513d601f19601f820116820180604052508101906106bf9190610a22565b90506106ce6201518042610a51565b6106d890426109f0565b6106e490617080610a65565b8110156107295760405162461bcd60e51b815260206004820152601360248201527213dc9858db194e881b9bdd081d5c19185d1959606a1b60448201526064016102ce565b60006107386201518042610a51565b61074290426109f0565b61074e90617080610a65565b6000908152602081905260409020600101541596929550919350505050565b6000602052816000526040600020816002811061078957600080fd5b01549150829050565b61079a610838565b7f00000000000000000000000000000000000000000000000000000000000000006001600160a01b0316633944ea3a6040518163ffffffff1660e01b8152600401600060405180830381865afa1580156107f8573d6000803e3d6000fd5b505050506040513d6000823e601f3d908101601f191682016040526108209190810190610afe565b8060200190518101906108339190610bab565b905090565b60405180604001604052806002906020820280368337509192915050565b8260028101928215610884579160200282015b82811115610884578251825591602001919060010190610869565b50610890929150610894565b5090565b5b808211156108905760008155600101610895565b600080604083850312156108bc57600080fd5b50508035926020909101359150565b60408101818360005b60028110156108f35781518352602092830192909101906001016108d4565b50505092915050565b6000806020838503121561090f57600080fd5b823567ffffffffffffffff8082111561092757600080fd5b818501915085601f83011261093b57600080fd5b81358181111561094a57600080fd5b86602082850101111561095c57600080fd5b60209290920196919550909350505050565b60005b83811015610989578181015183820152602001610971565b83811115610998576000848401525b50505050565b821515815260406020820152600082518060408401526109c581606085016020870161096e565b601f01601f1916919091016060019392505050565b634e487b7160e01b600052601160045260246000fd5b600082821015610a0257610a026109da565b500390565b6000600019821415610a1b57610a1b6109da565b5060010190565b600060208284031215610a3457600080fd5b5051919050565b634e487b7160e01b600052601260045260246000fd5b600082610a6057610a60610a3b565b500690565b60008219821115610a7857610a786109da565b500190565b600082610a8c57610a8c610a3b565b500490565b6000816000190483118215151615610aab57610aab6109da565b500290565b8281526060810160208083018460005b6002811015610add57815483529183019160019182019101610ac0565b505050509392505050565b634e487b7160e01b600052604160045260246000fd5b600060208284031215610b1057600080fd5b815167ffffffffffffffff80821115610b2857600080fd5b818401915084601f830112610b3c57600080fd5b815181811115610b4e57610b4e610ae8565b604051601f8201601f19908116603f01168101908382118183101715610b7657610b76610ae8565b81604052828152876020848701011115610b8f57600080fd5b610ba083602083016020880161096e565b979650505050505050565b600060408284031215610bbd57600080fd5b82601f830112610bcc57600080fd5b6040516040810181811067ffffffffffffffff82111715610bef57610bef610ae8565b8060405250806040840185811115610c0657600080fd5b845b81811015610c20578051835260209283019201610c08565b50919594505050505056fea2646970667358221220169c5174a06827372d475802b85171be003024f8e49f7cc6fc36696810ece4aa64736f6c634300080a0033",
  "linkReferences": {},
  "deployedLinkReferences": {}
}