{
  "_format": "hh-sol-artifact-1",
  "contractName": "SpotOracle",
  "sourceName": "contracts/oracles/SpotOracle.sol",
  "abi": [
    {
      "inputs": [
        {
          "internalType": "contract AggregatorV3Interface",
          "name": "priceFeed",
          "type": "address"
        }
      ],
      "stateMutability": "nonpayable",
      "type": "constructor"
    },
    {
      "anonymous": false,
      "inputs": [
        {
          "indexed": false,
          "internalType": "uint256",
          "name": "expiry",
          "type": "uint256"
        },
        {
          "indexed": false,
          "internalType": "uint256",
          "name": "settlePrice",
          "type": "uint256"
        }
      ],
      "name": "Settled",
      "type": "event"
    },
    {
      "inputs": [],
      "name": "latestExpiryUpdated",
      "outputs": [
        {
          "internalType": "uint256",
          "name": "",
          "type": "uint256"
        }
      ],
      "stateMutability": "view",
      "type": "function"
    },
    {
      "inputs": [],
      "name": "settle",
      "outputs": [],
      "stateMutability": "nonpayable",
      "type": "function"
    },
    {
      "inputs": [
        {
          "internalType": "uint256",
          "name": "",
          "type": "uint256"
        }
      ],
      "name": "settlePrices",
      "outputs": [
        {
          "internalType": "uint256",
          "name": "",
          "type": "uint256"
        }
      ],
      "stateMutability": "view",
      "type": "function"
    }
  ],
  "bytecode": "0x60a0604052600060015534801561001557600080fd5b5060405161059a38038061059a83398101604081905261003491610045565b6001600160a01b0316608052610075565b60006020828403121561005757600080fd5b81516001600160a01b038116811461006e57600080fd5b9392505050565b60805161050a61009060003960006102c1015261050a6000f3fe608060405234801561001057600080fd5b50600436106100415760003560e01c806311da60b4146100465780636f31322314610050578063f0ea68aa1461006b575b600080fd5b61004e61008b565b005b61005960015481565b60405190815260200160405180910390f35b610059610079366004610394565b60006020819052908152604090205481565b600061009a62015180426103c3565b6100a490426103ed565b6100b090617080610404565b600081815260208190526040902054909150156101145760405162461bcd60e51b815260206004820152601760248201527f4f7261636c653a20616c726561647920736574746c656400000000000000000060448201526064015b60405180910390fd5b600061011e6102bc565b9050600154600014158015610140575061013b6202a300836103ed565b600154105b1561026a576000620151806001548461015991906103ed565b610163919061041c565b600180546000908152602081905260409020549192505b828110156102665760006101918262015180610430565b60015461019e9190610404565b90506000858411156101db5784836101b688876103ed565b6101c09190610430565b6101ca919061041c565b6101d490856103ed565b9050610208565b84836101e786896103ed565b6101f19190610430565b6101fb919061041c565b6102059085610404565b90505b6000828152602081815260409182902083905581518481529081018390527ff5b268a3ff315cc44ccceeef86259c9e8eef81ceecb14001543809115380dd62910160405180910390a15050808061025e9061044f565b91505061017a565b5050505b60008281526020818152604091829020839055600184905581518481529081018390527ff5b268a3ff315cc44ccceeef86259c9e8eef81ceecb14001543809115380dd62910160405180910390a15050565b6000807f00000000000000000000000000000000000000000000000000000000000000006001600160a01b031663feaf968c6040518163ffffffff1660e01b815260040160a060405180830381865afa15801561031d573d6000803e3d6000fd5b505050506040513d601f19601f820116820180604052508101906103419190610484565b5050509150506000811361038f5760405162461bcd60e51b81526020600482015260156024820152744f7261636c653a20696e76616c696420707269636560581b604482015260640161010b565b919050565b6000602082840312156103a657600080fd5b5035919050565b634e487b7160e01b600052601260045260246000fd5b6000826103d2576103d26103ad565b500690565b634e487b7160e01b600052601160045260246000fd5b6000828210156103ff576103ff6103d7565b500390565b60008219821115610417576104176103d7565b500190565b60008261042b5761042b6103ad565b500490565b600081600019048311821515161561044a5761044a6103d7565b500290565b6000600019821415610463576104636103d7565b5060010190565b805169ffffffffffffffffffff8116811461038f57600080fd5b600080600080600060a0868803121561049c57600080fd5b6104a58661046a565b94506020860151935060408601519250606086015191506104c86080870161046a565b9050929550929590935056fea26469706673582212203808341f811708dd2cf7ef4f17d931a937fba352a4261ce3c2d4a9e2c732c02a64736f6c634300080a0033",
  "linkReferences": {},
  "deployedLinkReferences": {}
}